:020000040800F2
:1000000060220020C1010008A71300082F12000879
:10001000A5130008F1020008051A000800000000FE
:10002000000000000000000000000000AB1300080A
:10003000F302000800000000A9130008AD13000837
:10004000DB010008DB010008DB010008DB01000820
:10005000DB010008DB010008DB010008DB01000810
:10006000DB010008DB010008DB010008DB01000800
:10007000DB010008DB010008DB010008DB010008F0
:10008000DB010008DB010008DB010008DB010008E0
:10009000DB010008DB010008DB010008DB010008D0
:1000A000DB010008DB010008DB010008DB010008C0
:1000B00089140008DB010008DB010008DB010008EF
:1000C000DB010008DB010008DB010008DB010008A0
:1000D000DB010008DB010008F9190008DB0100085A
:1000E000DB010008DB010008DB010008DB01000880
:1000F000DB010008DB010008DB010008DB01000870
:10010000DB010008DB010008DB010008DB0100085F
:10011000DB010008DB010008DB010008DB0100084F
:10012000DB010008DB010008DB010008DB0100083F
:10013000DB010008DB010008DB010008DB0100082F
:10014000DB010008DB010008DB010008DB0100081F
:10015000DB010008DB010008DB010008DB0100080F
:10016000DB010008DB010008DB010008DB010008FF
:10017000DB010008DB010008DB01000800000000D3
:10018000DB010008DB010008DB010008DB010008DF
:10019000DB010008DB010008DB010008DB010008CF
:1001A000DB010008DB010008DB010008DFF80CD0F0
:1001B00000F08CF8004800475D38000860220020FD
:1001C0000648804706480047FEE7FEE7FEE7FEE7F1
:1001D000FEE7FEE7FEE7FEE7FEE7FEE73514000870
:1001E000AD0100082DE9F05F0546002092469B46D0
:1001F00088460646814640241BE02846414647463D
:10020000224600F053F853465A46C01A914110D383
:1002100011461846224600F03AF82D1A67EB0108FD
:100220004F4622460120002100F031F817EB00096B
:100230004E41201EA4F10104DFDC484631462A4627
:100240004346BDE8F09F40EA01039B0703D009E065
:1002500008C9121F08C0042AFAD203E011F8013BB2
:1002600000F8013B521EF9D27047D2B201E000F80B
:10027000012B491EFBD270470022F6E710B513464A
:100280000A4604461946FFF7F0FF204610BD202A13
:1002900004DB203A00FA02F1002070479140C2F1DD
:1002A000200320FA03F3194390407047202A04DB0F
:1002B000203A21FA02F00021704721FA02F3D040DF
:1002C000C2F120029140084319467047064C074D81
:1002D00006E0E06840F0010394E807009847103416
:1002E000AC42F6D3FFF766FF003C0008203C000854
:1002F000FEE77047704790F83510022903D080213F
:10030000416501207047052180F8351000680168BB
:1003100021F0010101600020704700002DE9F84F35
:10032000DFF8A091002209F1040A0AF1040B4FF052
:100330000F080BF1040E01260B6896403340B342C0
:1003400071D14C68022C01D0122C11D1D40800EBD1
:1003500084073D6A5407E40E08FA04FC25EA0C05FC
:10036000D1F810C00CFA04FC4CEA050CC7F820C008
:1003700007685400032591F804C0A5400CF0030C55
:10038000AF430CFA04FC4CEA070CC0F800C04F68FD
:10039000012F05D0022F03D0112F01D0122F11D120
:1003A0008768D1F80CC0AF430CFA04FC4CEA070C88
:1003B000C0F808C04768B7430E79C6F300169640E8
:1003C0003E434660C668AE438D68A5403543C56070
:1003D0004C68E4006FD53C4C256845F480452560A9
:1003E000246822F0030504F480440094374C2E194D
:1003F000D6F808789407250F08FA05F4A743344C7B
:10040000A04201D100242EE0324CA04201D10124AF
:1004100029E0314CA04201D1022424E02F4CA0421B
:1004200002D103241FE046E02D4CA04201D1042458
:1004300019E02C4CA04201D1052414E02A4CA04222
:1004400001D106240FE0294CA04201D107240AE083
:10045000274CA04201D1082405E0264CA04201D13E
:10046000092400E00A24AC403C43C6F80848D9F807
:1004700000404D464E689C43F60300D51C432C605B
:10048000DAF8004055464E689C43B60300D51C433D
:100490002C60DBF800405D464E689C43F60200D5B8
:1004A0001C432C60DEF8004075464E689C43B60243
:1004B00000D51C432C60521C102AFFF43CAFBDE851
:1004C000F88F0000003C01404438024000300140F9
:1004D000000002400004024000080240000C0240FC
:1004E000001002400014024000180240001C0240AC
:1004F00000200240002402400069084000D0012092
:1005000070470AB1816170470904FBE701488068C0
:1005100070470000080000200248816802781144FA
:1005200081607047080000200B4810B5016841F455
:1005300000710160016841F480610160016841F46B
:1005400080710160032000F06FF8002000F006F8D1
:1005500000F024F8002010BD003C024070B50D4DA5
:1005600004464FF47A712878B1FBF0F00A49096823
:10057000B1FBF0F000F0F0FA48B9102C07D20022DD
:100580002146501E00F030F800206C6070BD012044
:1005900070BD000008000020140000200A4808B5C3
:1005A000016841F480410160006800F480400090DF
:1005B0000548001F016841F080510160006800F0AB
:1005C0008050009008BD000044380240002809DB3C
:1005D00000F01F02012191404009800000F1E0205D
:1005E000C0F8001170470000F0B40E4B1B68C3F355
:1005F0000223C3F10704042C00D904241D1D072D78
:1006000001D2002300E0DB1E012606FA04F56D1E70
:100610000D409D409E40761E164045EA0601F0BC06
:1006200001F002BA0CED00E0064A00F00701106884
:100630004FF6FF03184040EA0120034908431060C9
:10064000704700000CED00E00000FA05BFF34F8F8B
:1006500005480168054A01F4E06111430160BFF3F8
:100660004F8F00BFFDE700000CED00E00400FA052D
:100670002DE9F0470D46040065D0DFF81491D9F854
:100680000000EFB200F00F00A84207D289F8007016
:10069000D9F8000000F00F00A84254D120683D4E68
:1006A000810712D5400703D5306840F4E050306030
:1006B0002078000703D5306840F46040306030682F
:1006C000A16820F0F000084330602078C0072DD0EA
:1006D000304960680839012812D0022813D0032855
:1006E00011D00968890700292DDA316821F003014A
:1006F00001433160FFF70AFF804641F2883A0EE07D
:1007000009688903EFE709688901ECE7FFF7FEFE56
:10071000A0EB0801514502D90320BDE8F0873068FD
:10072000616800F00C00B0EB810FEFD1D9F8001038
:10073000484601F00F01A94207D90770006800F090
:100740000F00A84201D00120E7E72078400705D537
:100750003068E16820F4E0500843306020780007FA
:1007600006D53068216920F4604040EAC10030605D
:1007700000F036F83168084AC1F30311515CC840F3
:10078000064908600020FFF7E9FE0020C5E70000E9
:10079000003C024008380240E83B000814000020FA
:1007A0000448054900680968044AC1F38221515C84
:1007B000C84070471400002008380240F83B000889
:1007C0000448054900680968044AC1F34231515C94
:1007D000C84070471400002008380240F83B000869
:1007E000154810B5006810F00C01144813D0144BD4
:1007F00004290FD008290ED10F4C241F216801F0C5
:100800003F022168490207D52068C0F38810A0FB89
:10081000030106E0184610BD2168C1F38811A1FB51
:1008200000010023FFF7DEFC2168C1F30141491CF0
:100830004900B0FBF1F010BD083802400024F4007C
:1008400040787D012DE9F84F040073D02078BD4D2C
:10085000C00748D0BB4808300168C1F381010129B5
:1008600008D00068C0F3810002280AD1281D006862
:10087000400206D52868800335D560680028E4D09A
:1008800031E06068B0F5803F10D0B0F5A02F286847
:1008900010D020F480302860286820F48020286060
:1008A0006068A0B1FFF732FE06460CE0286840F40D
:1008B0008030F4E740F480202860F7E7FFF726FE59
:1008C000801B642872D828688003F7D50BE0FFF7F7
:1008D0001DFE064604E0FFF719FE801B6428F1D8D0
:1008E00028688003F7D42078DFF85C9280074FF007
:1008F000000A3ED593480830016811F00C0F09D06A
:100900000068C0F3810002280BD18E48001D0068EA
:10091000400206D42868800715D5E068012809D16F
:1009200011E0E068B8B10120C9F80000FFF7EEFD62
:10093000064605E003E1FFF7E9FD801B0228C1D868
:1009400028688007F7D52868216920F0F80040EA78
:10095000C10028600DE0C9F800A0FFF7D7FD0646EA
:1009600004E0FFF7D3FD801B02281FD8286880070A
:10097000F7D42078000722D5724F74496069743724
:1009800070B101200860FFF7C1FD064604E0FFF7E3
:10099000BDFD801B022809D838688007F7D50EE016
:1009A000C1F800A0FFF7B2FD064605E081E0FFF7C1
:1009B000ADFD801B02287CD838688007F7D42078EA
:1009C000400769D5DFF87CB14FF000080BF1400B10
:1009D000DBF80000C0000CD4DBF8001041F08051BF
:1009E000CBF80010DBF800004FF0010800F0805059
:1009F0000090574F3868C0050FD4386840F48070B5
:100A00003860FFF783FD064604E0FFF77FFD801B9B
:100A100002284ED83868C005F7D54A4FA06870370D
:100A200001280FD00528386810D020F00100386068
:100A3000386820F004003860A068B0B1FFF766FDA8
:100A400006460EE0386840F00100F4E740F004008C
:100A50003860F7E7FFF75AFD811B41F28830814289
:100A600065D838688007F5D50DE0FFF74FFD0646DD
:100A700006E0FFF74BFD811B41F28830814256D8DA
:100A800038688007F5D4B8F1000F05D0DBF8001006
:100A900021F08051CBF80010A069C8B32949083172
:100AA0000968C1F38101022949D00228504607D0C4
:100AB00000E03CE0C9F86000FFF728FD044639E09B
:100AC0004F46C9F86000FFF721FD064604E0FFF736
:100AD0001DFD801B02282AD828688001F7D4D4E99C
:100AE00007010843A16A1B4A490802EB0141626AF7
:100AF00041EA8211084394F82C1040EA0161114840
:100B0000001D016001203866FFF700FD044605E086
:100B100013E0FFF7FBFC001B022808D828688001BF
:100B2000F7D50AE0FFF7F2FC001B022802D90320E8
:100B3000BDE8F88F28688001F4D40020F8E7012090
:100B4000F6E700000038024000004742800E4742AE
:100B5000007000400000FFFF10B5401EB0F1807F24
:100B600001D3012010BD4FF0E02460610F21601718
:100B700000F05AFF0020A06107202061002010BD76
:100B80007047704770B590F83C20012A19D00125B4
:100B900000F83C5F0222427050F83C2C5368946885
:100BA00023F070060B684968334324F08004214326
:100BB000536050F83C2C916045700021017008464C
:100BC00070BD022070BD10B5040003D094F83D0044
:100BD00010B107E0012010BD002084F83C00204641
:100BE00000F00CF8022084F83D00211D206800F080
:100BF00051FC012084F83D00002010BD08B50068BC
:100C0000B0F1804F08D10548016841F00101016051
:100C1000006800F00100009008BD0000403802406C
:100C20000168CA6842F00102CA600068816801F088
:100C30000701062903D0016841F00101016000208D
:100C4000704770B5044690F83C00012817D0012584
:100C500084F83C50022084F83D002068826822F02D
:100C6000770222F47F4282600868502830D00DDC81
:100C700020284DD005DC98B310283BD148E0022055
:100C800070BD302844D0402834D139E0602828D0C5
:100C9000702806D0B0F5805F2CD0B0F5005F29D168
:100CA0000AE0CB68D1E90121206800F057FC2068F8
:100CB000816841F0770109E0CB68D1E90121206822
:100CC00000F04CFC2068816841F48041816011E0B3
:100CD000CA684968206800F053FC5021206807E08A
:100CE00016E0CA684968206800F05BFC6021206853
:100CF00000F03EFC84F83D50002084F83C0070BDBC
:100D0000CA684968206800F03BFC40212068EFE792
:100D1000226801461046EBE7704770B5044600684C
:100D200001694FF00005C943890715D4C168C9435B
:100D3000890711D4E91E01610120207720688069AC
:100D40008007204602D0FFF7E7FF04E000F098F8A4
:100D5000204600F096F8257720680169C9434907C5
:100D600017D4C168C943490713D46FF00401016166
:100D7000022020772068806910F4407F204602D04E
:100D8000FFF7CAFF04E000F07BF8204600F079F896
:100D9000257720680169C943090716D4C168C9438A
:100DA000090712D46FF00801016104202077206840
:100DB000C0698007204602D0FFF7AEFF04E000F0D4
:100DC0005FF8204600F05DF8257720680169C94387
:100DD000C90617D4C168C943C90613D46FF01001FE
:100DE0000161082020772068C06910F4407F204608
:100DF00002D0FFF791FF04E000F042F8204600F037
:100E000040F8257720680169C943C90708D1C1683E
:100E1000C943C90704D1891E0161204600F032F898
:100E200020680169C943090609D4C168C943090694
:100E300005D46FF0800101612046FFF7A1FE206814
:100E40000169C943490609D4C168C943490605D4A3
:100E50006FF040010161204600F024F8206801692C
:100E6000C94389060BD4C168C943890607D46FF00A
:100E7000200101612046BDE87040FFF782BE70BDD1
:100E800070477047054910B5884206D1044802F002
:100E90003FFCBDE8104002F0CDB810BD6C00002052
:100EA000000000207047704770B502680446106863
:100EB000D168536910F00F0F51D003F0010501F410
:100EC000907635435DD0C20705D0CA0503D5E26BE5
:100ED00042F00102E263420705D5DA0703D0E26B74
:100EE00042F00202E263820705D5DA0703D0E26B23
:100EF00042F00402E263020705D5DA0703D0E26B91
:100F000042F00802E263E26B002A34D0800604D586
:100F1000880602D5204600F06CFB20684069E16B32
:100F2000C0F3801001F008010143204624D000F0F6
:100F300052FB2068416949061AD5416921F04001F8
:100F40004161606BA0B11B490165606BFFF7D3F98C
:100F5000002810D0606B016DBDE870400847830623
:100F60000FD58B060DD52046BDE8704000F041BB83
:100F70002046FFF798FF70BDFFF795FF0020E06364
:100F800070BD030606D50B0604D52046BDE87040AB
:100F900000F0D0BC4006F3D54806F1D5D168204614
:100FA00021F04001D160202184F8391000F03EF991
:100FB00070BD0000C715000870B5040004D094F897
:100FC0003900002510B106E0012070BD84F83850CA
:100FD000204600F023F8242084F839002068C168F6
:100FE00021F40051C160204600F04EFB20680169E9
:100FF00021F4904101612068416921F02A01416199
:101000002068C16841F40051C160E563202084F884
:10101000390084F83A00002070BD0000F0B587B0B8
:10102000044614216846FFF727F91D4F21681D4A21
:1010300002230124032507261B48B94213D119496D
:1010400014310F6847F010070F60096801F01001B4
:101050000591116841F001011160116801F0010171
:101060000591690215E0114FB94217D10D491031B0
:101070000F6847F400370F60096801F400310591EB
:10108000116841F001011160116801F00101059141
:101090000C218DE87A006946FFF740F907B0F0BDF2
:1010A000001001403038024000000240004400407F
:1010B00090F83A30202B22D1F9B1F2B190F83830C3
:1010C000012B1CD081628285C2850021C16322224E
:1010D00080F83A2080F838100168CA6842F48072BB
:1010E000CA6001684A6942F001024A610068C16849
:1010F00041F02001C16000207047012070470220AC
:101100007047000010B50068074988420AD10121E4
:10111000064801F091FEBDE8104001220349044851
:10112000FFF7C6BF10BD00000044004018000020BB
:10113000EC0000202DE9F843044690F839001E46E3
:1011400017460D46202850D1A5B19FB194F838001C
:1011500001284AD0012084F838004FF00008C4F874
:101160003C80212084F83900FFF7D0F9A78481461C
:10117000E78426E00120BDE8F883E08C401EE0848F
:10118000A0684B46B0F5805F4FF000024FF0800141
:101190002046009603D000F0FEFBE8B90DE000F019
:1011A000FAFBC8B928882168C0F3080048602069A4
:1011B00008B16D1C05E0AD1C03E0216815F8010BBA
:1011C0004860E08C0028D8D14B46002240212046C0
:1011D000009600F0E0FB08B10320CCE7202084F863
:1011E000390084F838800020C5E70220C3E790F872
:1011F0003930202B18D1A9B1A2B190F83830012B89
:1012000012D001628284C2840021C163212280F84D
:10121000392080F838100068C16841F08001C16051
:101220000020704701207047022070477047FEE79A
:1012300070B586B014216846FFF71EF820480024D8
:10124000016841F004010160016801F004010591A9
:10125000016841F080010160016801F080010591A1
:10126000016841F001010160016801F0010105918F
:10127000016841F0020101600068124E00F00200B6
:101280000590002201213046FFF73BF94FF4005052
:1012900001258DE8310069460B48FFF73FF804202F
:1012A0008DE8310069460948FFF738F80095CDE927
:1012B0000154694630460394FFF730F806B070BD1C
:1012C000303802400004024000080240001C024086
:1012D00010B586B00024164800940194029403943B
:1012E00004944FF080410594016041F61F41C0E92C
:1012F00001140921C0E903148461FFF764FC08B1FB
:10130000FEF7F8FF4FF48050009069460848FFF759
:1013100098FC08B1FEF7EEFF049404A90448059474
:10132000FFF730FC002801D0FEF7E4FF06B010BD47
:101330006C0000200C4810B50A4901604FF4E131FF
:101340004160002181600C22C160C0E9041281610A
:10135000C161FFF731FE002803D0BDE81040FEF761
:10136000C9BF10BD00100140AC0000200C4810B5F2
:101370000A4901604FF416514160002181600C223E
:10138000C160C0E904128161C161FFF715FE002848
:1013900003D0BDE81040FEF7ADBF10BD00440040D3
:1013A000EC000020FEE7704770477047FFF7B4B8C5
:1013B00030B593B030216846FEF75EFF14210CA8CB
:1013C000FEF75AFF19480025016841F0805101607D
:1013D000006800F0805011901548016821F44041E8
:1013E00041F4804101600068022400F44040119003
:1013F0000120039010200490009406940820CDE969
:1014000007504820CDE9090404200B906846FFF7F7
:1014100019FA0CA90F2081E83100E002CDE90F058F
:1014200002210CA8FFF724F913B030BD4038024068
:10143000007000401048016841F4700101600F48DD
:10144000016841F0010101600C4A0021083211607D
:1014500002680B4B1A400260031D0A4A1A600268B8
:1014600022F48022026005480C30016002495806CF
:10147000803908607047000088ED00E000380240C5
:10148000FFFFF6FE103000240148FFF746BC0000C5
:101490006C000020F0B50268254D264E264FDFF87F
:1014A0009CC0274B4FF0804EA84209D0704507D012
:1014B000B04205D0B84203D0604501D0984203D174
:1014C00022F070044A682243A8421BD0704519D00C
:1014D000B04217D0B84215D0604513D0984211D011
:1014E000184CA0420ED0184CA0420BD0174CA04272
:1014F00008D0174CA04205D0164CA04202D0164C82
:10150000A04203D122F44074CA6822434C6922F0FD
:101510008002224302608A68C2620A688262A8422C
:1015200001D0984201D10969016301214161F0BDF7
:10153000000001400004004000080040000C004092
:1015400000040140004001400044014000480140C7
:1015500000180040001C00400020004010B58468C6
:1015600042EA032224F47F440A432243826010BDEE
:10157000826822F070020A4342F0070181607047DE
:1015800010B5046A036A23F001030362836923F040
:10159000F00343EA021324F00A020A438361026261
:1015A00010BD10B5036A23F0100303628469036A57
:1015B00024F4704444EA023223F0A00343EA011108
:1015C0008261016210BD10B5806B0021C185C184AC
:1015D000FFF769FC10BD0168CA6822F49072CA6006
:1015E00001684A6922F001024A61202180F83A101C
:1015F000704710B590F83A10222901D0022010BD92
:101600008168B1F5805F11D00169002901681FD0A0
:10161000496801F07F03816A4A1C82620B70C18DA8
:10162000491E0904090CC18518D02BE00269816AA2
:10163000002A0268526805D0D2B20A80816A491C29
:101640008162ECE7C2F308020A80816A891CF7E72D
:101650004A68816A4B1C83620A70E0E70168CA68C5
:1016600022F02002CA600168CA6822F48072CA604F
:1016700001684A6922F001024A61202180F83A108B
:10168000FFF740FD002010BD2DE9F0410446006841
:101690000169E26821F4405111430161A1682069A8
:1016A000E26901436069104301432068C26849F25E
:1016B0000C639A430A43C26020684169A26921F41D
:1016C000407111434161E0696425B0F5004F974ACC
:1016D000974920684FF032083FD0884201D09042AD
:1016E0007CD1FFF76DF800EBC00101EB00106168E1
:1016F0008900B0FBF1F6FFF763F800EBC00101EBE6
:10170000001061688900B0FBF1F0B0FBF5F06FF0FC
:101710001801484306EB800108EB0110B0FBF5F01F
:1017200000F0F006FFF74CF800EBC00101EB0010F1
:1017300061688900B0FBF1F0B0FBF5F006EB001634
:10174000FFF73EF800EBC00101EB00106168890073
:10175000B0FBF1F7FFF734F8D2E0884201D09042B5
:101760003DD1FFF72DF800EBC00101EB00106168DF
:101770004900B0FBF1F0B0FBF5F00601FFF720F8EF
:1017800000EBC00101EB001061684900B0FBF1F70C
:10179000FFF716F800EBC00101EB0010616849008B
:1017A000B0FBF1F0B0FBF5F06FF01801484307EB28
:1017B000800108EBC100B0FBF5F000F0F80006EB8B
:1017C0004006FEF7FDFF00EBC00101EB0010616871
:1017D0004900B0FBF1F7FEF7F3FF3CE055E0FEF700
:1017E000DFFF00EBC00101EB001061684900B0FBB6
:1017F000F1F0B0FBF5F00601FEF7D2FF00EBC001FF
:1018000001EB001061684900B0FBF1F7FEF7C8FF7B
:1018100000EBC00101EB001061684900B0FBF1F082
:10182000B0FBF5F06FF01801484307EB800108EBBF
:10183000C100B0FBF5F000F0F80006EB4006FEF743
:10184000AFFF00EBC00101EB001061684900B0FB85
:10185000F1F7FEF7A5FF00EBC00101EB0010616896
:101860004900B0FBF1F0B0FBF5F06FF01801484310
:1018700007EB800108EBC100B0FBF5F000F00700BA
:10188000216830448860BDE8F081FEF789FF00EBF5
:10189000C00101EB001061688900B0FBF1F6FEF7B2
:1018A0007FFF00EBC00101EB001061688900B0FB15
:1018B000F1F0B0FBF5F06FF01801484306EB800142
:1018C00008EB0110B0FBF5F000F0F006FEF768FF42
:1018D00000EBC00101EB001061688900B0FBF1F082
:1018E000B0FBF5F006EB0016FEF75AFF00EBC00167
:1018F00001EB001061688900B0FBF1F7FEF750FFC3
:1019000000EBC00101EB001061688900B0FBF1F051
:10191000B0FBF5F06FF01801484307EB800108EBCE
:101920000110B0FBF5F000F00F00A9E70014014032
:101930000010014090F83910212901D00220704791
:101940008168B1F5805F016A0BD04A1C02620268AF
:1019500009785160C18C491E0904090CC1840ED05C
:1019600017E009880268C1F3080151600169002984
:10197000016A02D0491C0162ECE7891CFBE701689F
:10198000CA6822F08002CA600068C16841F0400164
:10199000C160002070472DE9F0411E461746884679
:1019A0000446069D1CE0681C1AD025B1FEF7AEFD6A
:1019B000801BA84214D92068C16821F4D071C1608D
:1019C0002068416921F001014161202084F839003B
:1019D00084F83A00002084F838000320BDE8F08144
:1019E0002068016838EA010004D00020B842DAD04B
:1019F0000020F3E70120F9E70148FFF755BA00009E
:101A0000EC000020FEE700000FB4054B10B503A961
:101A1000044A029800F028F810BC5DF814FB00009E
:101A2000F11E00083C0000200907090E002804DB15
:101A300000F1E02080F80014704700F00F0000F182
:101A4000E02080F8141D704702E008C8121F08C18A
:101A5000002AFAD170477047002001E001C1121F2F
:101A6000002AFBD1704700002DE9FF4F8DB00F46D3
:101A70000546002606E025280BD0DDE90F12904729
:101A80006D1C761C28780028F5D111B03046BDE8D1
:101A9000F08F0024A246A1460122EC4900E0044355
:101AA00015F8013F203B02FA03F00842F7D12878ED
:101AB0002A2810D06FF02F022878A0F130010929D0
:101AC00014D80AEB8A0102EB410144F0020400EB56
:101AD000010A6D1CF0E701CF5FEA000A03D544F468
:101AE0000054CAF1000A44F002046D1C28782E2824
:101AF00017D115F8010F44F004042A280ED06FF016
:101B00002F022878A0F1300109290AD809EB8901B0
:101B100002EB410100EB01096D1CF2E757F8049B51
:101B20006D1C28786C280FD006DC4C2817D068284C
:101B30000DD06A2814D104E0742810D07A280FD16F
:101B40000DE044F400140AE044F4801401E044F48D
:101B500040146978814202D104F580146D1C6D1C1B
:101B60002A786E2A1FD00CDC632A31D004DC002ACC
:101B70008BD0582A11D1A3E0642A68D0692A0CD1ED
:101B800065E0732A2ED004DC6F2A73D0702A04D14A
:101B90009BE0752A6FD0782A6ED01046DDE90F12CF
:101BA0009047761C50E1C4F30250022806D0032867
:101BB00009D0042801CF09D0066045E101CFF11713
:101BC000C0E9006140E101CF06803DE106703BE1E4
:101BD00017F8040B8DF8000000208DF80100EB468B
:101BE000012003E057F804BB4FF0FF3061074FF0CE
:101BF000000102D40DE008F10101884649450FDAE1
:101C00008045F8DB1BF808100029F4D108E008F142
:101C1000010188468142FADB1BF808100029F6D141
:101C2000DDE90F23AAEB08008146214600F036F9D2
:101C3000304400EB080604E0DDE90F121BF8010B4D
:101C40009047B8F10108F7D221464846F7E00A214B
:101C5000C4F302534FF0000B0891022B04D001CFC4
:101C6000C117032B09D00AE0FF1D27F00707F7E88B
:101C7000020108E032E01FE020E000B2C117042BAF
:101C800001D140B2C117031E71F1000307DA4FF012
:101C9000000CD0EB0C006CEB01012D2302E02305BE
:101CA00004D52B238DF82430012303E0E30701D072
:101CB0002023F7E7984658E00A2110E010210EE0B3
:101CC00010204FF0000B08900CE010214FF0000B9B
:101CD00044F004044FF00809089103E008214FF094
:101CE000000B0891C4F30253022B04D001CF002152
:101CF000032B06D006E0FF1D27F00707F7E80201D7
:101D000003E080B2042B00D1C0B24FF000082307DB
:101D10002BD5702A07D0DDF820C08CF0100C5CEABF
:101D20000B0C05D00EE040238DF82430012308E091
:101D300050EA010306D030238DF824308DF8252099
:101D400002239846DDF820C08CF0080C5CEA0B0CEE
:101D50000BD150EA010301D1630706D530238DF87A
:101D600024304FF00108A9F10109582A04D038A203
:101D70000B9208AA0A920BE03AA2F9E75B46089A8E
:101D8000FEF730FA0B9B9B5C0A9A521E0A92137064
:101D900050EA0102F2D10A98ADEB000000F1200BED
:101DA000600702D524F4803401E04FF00109D945E1
:101DB00002DDA9EB0B0000E0002000EB0B01414429
:101DC0000890AAEB010AE00306D4DDE90F232146BF
:101DD000504600F063F806444FF0000908E009A9F6
:101DE00011F80900DDE90F12904709F10109761C8D
:101DF000C145F4DBE0030CD5DDE90F232146504655
:101E000000F04CF8064404E0DDE90F123020904762
:101E1000761C0899481E08900029F5DC08E00A980D
:101E20000A990078491C0A91DDE90F129047761C47
:101E3000BBF10001ABF1010BF1DC21465046DDE9BD
:101E40000F2300F019F806446D1C1BE60928010059
:101E50003031323334353637383961626364656620
:101E600000000000303132333435363738394142E2
:101E700043444546000000002DE9F041044600259A
:101E80001E461746880404D405E039462020B04792
:101E90006D1C641EF9D52846BDE8F0812DE9F0419E
:101EA000044600251E469046C80301D5302700E0B1
:101EB0002027880404D505E041463846B0476D1C0C
:101EC000641EF9D52846BDE8F08101B581B0002037
:101ED000ADF800009DF805008DF800009DF80400A5
:101EE0008DF80100BDF800000CBD00BA704700007D
:101EF00013B54FF6FF73012269460248FFF71AF93E
:101F000000981CBDAC0000202DE9F04700240746D6
:101F100026464FF00108DFF8489019E0C4EBC401F1
:101F200001EB4105D7F8010005F1090101446A1DE3
:101F30000988104489B20068FEF7DEFA30B9D7F894
:101F40000100415D08FA01F0304386B2641CE4B23E
:101F500099F80000A042E1D83046BDE8F0870000C3
:101F60000000002048B1420707D000F00700C0F190
:101F70000800884203D3002070470829FBD90120BC
:101F8000704730B5002248B9501E30BD8B1A03444B
:101F9000845C13F8015D85541C70521CB2EB510F28
:101FA000F4D3002030BD000038B51446C0B1B9B13B
:101FB000B4B10278D20711D00D784A1C1123AB546A
:101FC0000A78431C521C0A7001210A460091002124
:101FD000084600F0EFFF00B101202070002038BD5E
:101FE00002A0FFF711FD4FF0FF3038BD67697A445A
:101FF000617461506F696E74324576656E74204508
:1020000072726F72202C20496C6C6567616C205075
:102010006172616D0A00000038B50C4678B174B188
:10202000002121700078009023460122084600F02C
:1020300099FF01212046FFF7A4FF002038BD03A02F
:10204000FFF7E2FC4FF0FF3038BD000067697A44CB
:10205000617461506F696E7473325265706F72741F
:1020600044617461204572726F72202C20496C6C3F
:102070006567616C20506172616D0A002DE9F0475F
:10208000054600F08BF8264FDFF8988004460026BE
:10209000A7F12509A7F1020ABDB100F07FF8397850
:1020A0002878814207D020A0FFF7AEFC012600F07F
:1020B00075F8C8F80800A6B121A0FFF7A5FC5146A5
:1020C0002846FFF7A9FF20B108E023A0FFF79CFCFA
:1020D00007E001225146042000F0E2FE297889F849
:1020E00025102748B4FBF0F100FB1140002815D162
:1020F000D8F80C004646A04210D022A0FFF784FC7E
:1021000051462846FFF788FF20B901225146042096
:1021100000F0C6FE297889F82510F460BDE8F08744
:10212000D10100202000002076616C75654C45448B
:102130006F6E6F6666204368616E6765640A0000B3
:102140006368616E6765642C207265706F727420BD
:10215000646174610A00000067697A436865636BB3
:102160005265706F7274204572726F72202C204914
:102170006C6C6567616C20506172616D0A000000D3
:10218000C0270900496E666F3A20363030532072FE
:1021900065706F727420646174610A000148406860
:1021A000704700001800002010B5134C94F83A0056
:1021B000012819D194F83900022816D2FFF7EEFF52
:1021C000D4F85310401AC8280ED9FFF7E7FF14F8C7
:1021D000393F0146D4F81A2008A0FFF715FC00F09B
:1021E0008BFD2078401C207010BD03481E21BDE8E7
:1021F00010403930FEF740B82C0100205761726E54
:10220000696E673A67697A50726F746F636F6C5268
:102210006573656E644461746120256420256420C3
:1022200025640A003EB5F8B101680091406801904C
:102230009DF80400401C8DF804000520FFF745FEC2
:10224000ADF802000921684600F090FD8DF8080005
:102250000921684601F054FC040003D5014605A09D
:10226000FFF7D2FB20463EBD09A0FFF7CDFB4FF0A4
:10227000FF303EBD4552523A20756172742077722C
:10228000697465206572726F72202564200A0000EF
:102290004552523A2067697A50726F746F636F6C5F
:1022A000436F6D6D6F6E41636B2064617461206973
:1022B0007320656D707479200A0000003EB50D46EC
:1022C000040021D0684600F0A5F912208DF8040022
:1022D00060798DF805000620FFF7F7FDADF80200E4
:1022E0008DF808500A21684600F040FD8DF809007D
:1022F0000A21684601F004FC040003D5014605A04C
:10230000FFF782FB20463EBD09A0FFF77DFB4FF0A3
:10231000FF303EBD4552523A20756172742077728B
:10232000697465206572726F72202564200A00004E
:1023300067697A50726F746F636F6C4572726F72F7
:10234000436D64204572726F72202C20496C6C655D
:1023500067616C20506172616D0A000010B59EB01B
:1023600004004FD0684600F055F902208DF80400B3
:1023700060798DF8050026A02022D0E90010CDE973
:10238000021026A0D0E90010CDE9041026A0D0E963
:102390000010CDE9081027A0D0E90010CDE9061003
:1023A00027A10AA8FDF74FFF20222EA10DF1520010
:1023B000FDF749FF0020CDF84A00CDF84E009DF80A
:1023C000510040F002008DF851000020FFF77DFD24
:1023D000ADF848006F20FFF778FDADF802007321DB
:1023E000684600F0C3FC8DF872007321684601F066
:1023F00087FB040003D5014623A0FFF705FB204619
:102400001EB010BD27A0FFF7FFFA4FF0FF30F7E72F
:102410003030303030303034000000003030303078
:102420003030303200000000303330333030303064
:102430000000000030333031303130300000000017
:10244000393866653532343532313033346362655C
:10245000616164623536383031373734653833344A
:1024600000000000616433356561303065643966B1
:102470003433303461333236386364653839386325
:1024800031326561000000004552523A2075617298
:1024900074207772697465206572726F722025648A
:1024A000200A000067697A50726F746F636F6C471F
:1024B0006574446576696365496E666F204572721E
:1024C0006F72202C20496C6C6567616C20506172C2
:1024D000616D0A002DE9F74F82B0002602988B4605
:1024E00035460C46771E78B174B1049860B10298F5
:1024F00001F0F5F9C0B25FEA000808D04FF0FF091B
:102500004FF0020A364F48E036A0FFF77DFA384612
:1025100005B0BDE8F08F01226946029801F015FA76
:10252000D0B37878FF2805D19DF80000FF2805D0AA
:1025300055282BD03878012817D027E0387858B1A3
:10254000B888042822D9A84220D084F8009084F8C2
:102550000190A7F804A019E084F8009084F8019095
:10256000A7F804A00120387010E0B8889DF800108A
:102570002154401C80B2B880042807D96088FFF736
:10258000A4FC001D85B2B888A84208D09DF80000C0
:102590007870B878401CB870761C4645BBDBB988AB
:1025A00004291AD9A94218D1204600F0DFFBB988C6
:1025B000214411F8011C81420CD12A46214658467B
:1025C000FDF741FE0498058000203870B880B8708F
:1025D00078709DE76FF001009AE7012098E700000E
:1025E0002000002067697A50726F746F636F6C47C8
:1025F00065744F6E655061636B6574204572726FD0
:1026000072202C20496C6C6567616C20506172618E
:102610006D0A000010B538B1002101604160FF2152
:1026200001704170002010BD02A0FFF7EDF94FF0DE
:10263000FF3010BD4552523A2067697A50726F746C
:102640006F636F6C48656164496E69742068656189
:102650006420697320656D707479200A00000000A1
:102660002DE9F0438BB0984617465FEA010906460C
:102670004FF0000525D0B8F1010F2AD0781D84B2A3
:1026800023462A46394628A0FFF7BEF9FF208DF8D9
:1026900000008DF80100200A8DF802008DF803403B
:1026A0003079401C8DF8040070798DF80500002009
:1026B0008DF8060008208DF80780B8F1010F0CD0C6
:1026C00016E023A0FFF7A0F94FF0FF300BB0BDE8F4
:1026D000F083357AE819801DD1E78DF808502A4635
:1026E00006F109010DF10900FDF7ADFD05F1090045
:1026F0006D4627B128443A464946FDF7A4FD211D01
:10270000684600F033FB2919C870211D684601F0A6
:10271000F7F9010005D514A0FFF776F96FF0010075
:10272000D4E70020D2E700006C656E203D202564D0
:10273000202C20734469644C656E203D2025642064
:102740002C646174615F6C656E203D2025640A0015
:102750005B4552525D202064617461204973204EB4
:10276000756C6C200A0000007561727420777269C4
:102770007465206572726F72202564200A00000063
:102780002DE9F05F0C000A9D94F800801E46174664
:102790004FF0FF3B03D016B10DB120B14DE028A0A2
:1027A000FFF732F924E0324813218146FDF764FD3A
:1027B0004046DFF8BC804FF0000AA8F15708012816
:1027C00006D04FF0030902280CD0052835D11CE0B3
:1027D000274A49464D32601CFFF7E6FB012188F885
:1027E000001028E022494C31881CFFF715FC10B17D
:1027F0005846BDE8F09F1E48293090F823007070BD
:1028000086F800900220286017E019487A1E611CA3
:102810004038FDF718FD40467F1EC8F82D7014495A
:1028200010F8573F491C10225A5410F81F19491C20
:10283000C17700F8389CC5F800A00020D9E7000057
:1028400067697A50726F746F636F6C4973737565E3
:102850006450726F63657373204572726F72202CBF
:1028600020496C6C6567616C20506172616D0A0073
:10287000830100202DE9F041050031D02889FFF7C0
:1028800024FB8C4F28818C4E38784FF00208C0F31F
:102890008001287A06F16B04C0F38002914241D096
:1028A00042074FF000014FEAC07020D550B196F8B2
:1028B0006A00015596F86A00401C86F86A007FA0FD
:1028C000FFF7A2F8287A80072CD596F86A10012025
:1028D000085596F86A00401C86F86A007FA01FE041
:1028E00085A0FFF791F84FF0FF30BDE8F08150B1BF
:1028F00096F86A00015596F86A00401C86F86A004E
:102900006EA0FFF781F8287A80070BD596F86A1039
:1029100001F8048096F86A00401C86F86A0082A0DC
:10292000FFF772F83878297AC0F3C003C1F3C00208
:1029300093421BD062F3C300387008070AD596F89B
:102940006A100320085596F86A00401C86F86A0051
:102950007CA009E096F86A100420085596F86A00F1
:10296000401C86F86A007FA0FFF74EF83878297A75
:10297000C0F30013C1F3001293421BD062F30410A2
:102980003870C8060AD596F86A100520085596F8DA
:102990006A00401C86F86A007AA009E096F86A107E
:1029A0000620085596F86A00401C86F86A007DA04B
:1029B000FFF72AF83878297AC0F34013C1F34012A0
:1029C00093421BD062F34510387088060AD596F8FA
:1029D0006A100720085596F86A00401C86F86A00BD
:1029E00079A009E096F86A100820085596F86A0060
:1029F000401C86F86A007BA0FFF706F87878697AB1
:102A0000C0F3C003C1F3C00293421BD062F3C30002
:102A1000787008070AD596F86A100B20085596F8C2
:102A20006A00401C86F86A0076A009E096F86A10F1
:102A30000C20085596F86A00401C86F86A0078A0B9
:102A4000FEF7E2FF7878697AC0F30013C1F3001251
:102A500093421BD062F304107870C8060AD596F82A
:102A60006A100920085596F86A00401C86F86A002A
:102A700073A009E096F86A100A20085596F86A00D3
:102A8000401C86F86A0075A0FEF7BEFF16F86A1FA4
:102A90000D2008553078401C3070687A00F007012E
:102AA00086F83C1074A0FEF7AFFF06F86A8C002091
:102AB0001BE70000260000202C0100204F6E426F13
:102AC000617264696E673A20536F66744150206F7B
:102AD0007220576562206D6F64650A004F6E426F09
:102AE000617264696E673A204169724C696E6B204D
:102AF0006D6F64650A00000067697A50726F746FC9
:102B0000636F6C4D6F64756C65537461747573207D
:102B10004572726F72202C20496C6C6567616C2065
:102B2000506172616D0A00004F6E426F617264699C
:102B30006E673A2053746174696F6E206D6F6465BF
:102B40000A00000057694669207374617475733A0E
:102B500020696E2062696E64696E67206D6F6465BE
:102B60000A00000057694669207374617475733AEE
:102B7000206F75742062696E64696E67206D6F6482
:102B8000650A000057694669207374617475733A69
:102B900020636F6E6E656374656420726F75746513
:102BA000720A000057694669207374617475733A3C
:102BB00020646973636F6E6E656374656420726F01
:102BC000757465720A000000576946692073746164
:102BD0007475733A20636F6E6E6563746564206DFF
:102BE000326D0A0057694669207374617475733ACF
:102BF00020646973636F6E6E6563746564206D3203
:102C00006D0A000057694669207374617475733AE0
:102C10002061707020636F6E6E6563740A0000003F
:102C200057694669207374617475733A206E6F201A
:102C300061707020636F6E6E6563740A000000003F
:102C400057694669207374617475733A20696E2000
:102C500074657374206D6F64650A00005769466976
:102C6000207374617475733A206F75742074657382
:102C700074206D6F64650A005253534920697320B4
:102C80002564200A0000000010B510B314498268C2
:102C9000134C41F8272FC2684A60028A0A81807C5F
:102CA000803C8872B4F8A7006B34FFF70EF9A08758
:102CB000606CFFF71AF96064A27C04F113000E2126
:102CC0001154A07C401CA074042004F86B0C00205C
:102CD00010BD04A0FEF798FE4FF0FF3010BD0000BD
:102CE000AC0100204552523A204E545020697320C6
:102CF000656D707479200A0010B50D4C94F83A0097
:102D0000002813D00BA0FEF77FFEB4F8511004F199
:102D10003B0000F0F5FEB4F85110814202D00DA046
:102D2000FEF772FEFFF73AFAC4F8530010BD000038
:102D30002C0100205761726E696E673A2074696DCC
:102D4000656F75742C20726573656E6420646174A0
:102D500061200A004552523A20726573656E642004
:102D600064617461206572726F720A0010B50300AD
:102D70004FF0000003D011B10222491E05E00020EF
:102D800010BD9C5C521C2044C0B28A42F9D310BDD5
:102D900070B50D46040016D01E210E48FDF76CFAE2
:102DA0000C482A462146801CFDF74DFA094C0120AB
:102DB000393CA4F8515084F83A003B34FFF7EEF95F
:102DC000A061002070BD04A0FEF71EFE4FF0FF3092
:102DD00070BD0000650100204552523A20646174C4
:102DE0006120697320656D707479200A000000000D
:102DF00010B50A4958B109790079491C814204D1BA
:102E000006481E21801EFDF737FA002010BD04A0E1
:102E1000FEF7FAFD4FF0FF3010BD00006701002003
:102E20004552523A206461746120697320656D7067
:102E30007479200A0000000070B50D464FF0FF3491
:102E400058B10A460146064800F0BEFDA84203D02C
:102E500004A0FEF7D9FD204670BD09A0F9E70000E7
:102E6000200200204552523A204661696C65642078
:102E7000746F2072625772697465200A0000000046
:102E80004552523A2067697A5075744461746120E2
:102E900062756620697320656D707479200A000080
:102EA000FEB516460C0005462CD06846FFF7B2FB6F
:102EB00005208DF80400194850F8313F8DF8053091
:102EC0005B1C03608DF808500720FEF7FEFFADF88D
:102ED0000200324621460DF10900FDF7B4F90B213D
:102EE0006846FFF743FF8DF80A000B21684600F0A3
:102EF00007FE04000CD5014609A0FEF785FD6FF022
:102F00000100FEBD0DA0FEF77FFD4FF0FF30FEBDBE
:102F10000B216846FFF73CFF2046FEBD2C01002038
:102F20004552523A20756172742077726974652037
:102F30006572726F72202564200A000067697A52F8
:102F400065706F727444617461204572726F722093
:102F50002C20496C6C6567616C20506172616D0A50
:102F60000000000070B50E46049D044653B11146A2
:102F70003046FEF7F7FF010006F0070005D00129F3
:102F800007D015E04FF0FF3070BD195D8540294333
:102F90000DE0EEB2C0F10801CE40FF22CA4019197F
:102FA0002A404D78824035434D70195D11431955C3
:102FB000002070BD2DE9F0438DB01646149F894660
:102FC000054600244FF0FF38CBB1C7B13A46194649
:102FD0006846FDF738F9012F05D939466846FEF7EE
:102FE000D0FF401C0BD031464846FEF7BBFF6A4677
:102FF000FF2309F0070130B101280BD017E040464C
:103000000DB0BDE8F083545DC6F10800CC40C3406C
:103010001C400CE05019525D4478C1F10800361A8A
:10302000C6F10806F3401C40CA40844014432046C1
:10303000E6E7000002484168491C41607047000013
:10304000180000202DE9FF410C4606004FF0000556
:1030500003D014B1DFF8988044E04FF0FF3004B0A3
:10306000BDE8F08170194078122839D2DFE800F00D
:10307000383838383838383838383838381A212E0F
:103080001D091C4F21781CA03970FEF7BDFC387853
:10309000012805D0012201214046FDF732FA1FE048
:1030A0000022F8E721781BA018E01DA0FEF7ACFC79
:1030B00016E02079A2796179A3688DE80F00E378A2
:1030C000A27821881BA0FEF79FFC09E024A0FEF750
:1030D0009BFC28A0FEF798FC21782AA0FEF794FC20
:1030E0006D1CEDB23078A842BCD80020B7E70000D4
:1030F00000040240190000204576743A20455645E8
:103100004E545F4C45446F6E6F6666202564200AFE
:1031100000000000525353492025640A00000000BB
:103120005452414E53504152454E545F44415441D4
:10313000200A0000574946495F4E5450203A205B10
:1031400025642D25642D256420253032643A2530F0
:1031500032643A253032645D5B25645D200A0000EC
:103160004D4F44554C4520494E464F202E2E2E0A99
:1031700000000000574946204D4F44554C45202E35
:103180002E2E0A006D6F64756C6554797065203A57
:10319000205B25645D200A002DE9F04F4FF000040C
:1031A0008FB05FEA000B2546ADF83040A2462646B8
:1031B0000D940ED0FEF7F8FF824F0CAA791C07F190
:1031C000F400FFF787F907F1B30950B1801C72D002
:1031D000B0E07DA0FEF718FC4FF0FF300FB0BDE867
:1031E000F08F83A0FEF710FCFEF7D8FF0146BDF874
:1031F000302084A0FEF708FC06E03819417886A04C
:10320000FEF702FC641CA4B2BDF830008442F4D383
:1032100083A0FEF7F9FB78797C1CB8460F284FD0C5
:103220000ADC0E2816D2DFE800F0151B151F151555
:10323000473B15154715473F182859D006DC11287C
:1032400078D014284FD0162804D135E0222857D042
:103250002A2831D002212046FFF730F871A067E01C
:103260002046FFF77BF865E0E279A17973A0FEF7CD
:10327000CBFB0DA80090BDF8300008EB0601821BC7
:1032800001AB50460931093AFFF77AFA002851D1CB
:10329000E37901A920460D9AFFF7E2F96BA047E018
:1032A0002046FEF7BFFF45E02046FEF7BBFF204665
:1032B000FFF7E0FA3EE047E02046FFF799FD39E0EE
:1032C0002046FEF7AFFF64A0FEF79EFBFEF766FF09
:1032D00004464FF41676FEF761FF001BB042FAD9A0
:1032E00000F0F8FA26E02046FFF782FD5FA01FE01D
:1032F0002046FFF77DFD2046FFF7C6FC63A017E0E0
:103300002046FFF775FD412204F108014846FCF70D
:103310009AFF2C4898F8902091300F21115498F87A
:103320009000401C88F89000052088F800005DA0FF
:10333000FEF76AFB234C3878573406282AD2DFE898
:1033400000F0290D13212E36781C0121FEF7B6FF5F
:103350005BA0FEF759FB6FF001003FE7194901221E
:103360003D70A431204606E016493D70A631A1F11A
:103370003C0001220446FFF765FE13212046FCF7BE
:103380007BFF07E00F493D70D7F82D20173120460D
:10339000FFF758FE5846FEF771FE00201EE7094968
:1033A0000C22A731A1F12A003D700446E3E705484D
:1033B0003D709030412249460446FFF743FE4121CB
:1033C000DCE700002C01002047697A7769747348B4
:1033D000616E646C65204572726F72202C20496C9E
:1033E0006C6567616C20506172616D0A00000000BD
:1033F000476574204F6E65205061636B6574210AC8
:103400000000000057694669324D43555B2534641E
:103410003A2534645D3A20002530327820000000DF
:103420000A0000004552523A20636D6420636F64C5
:1034300065206572726F72210A000000666C616718
:10344000202578202578200A0000000041636B4485
:10345000617461203A200A007265706F72743A4D8F
:103460004355207265626F6F74210A0041636B20BF
:1034700050524F44554354494F4E5F4D4F444520A1
:1034800073756363657373200A00000041636B20EA
:103490004745545F555454207375636365737320B7
:1034A0000A00000041636B204745545F4D6F64750F
:1034B0006C652073756363657373200A00000000F8
:1034C0004552523A20636865636B2073756D2065C1
:1034D00072726F72210A00000A4810B52C21016037
:1034E00000F11001C16000F027FA48B106A0FEF714
:1034F0008BFA0448F421BDE81040F438FCF7BCBE58
:1035000006A0F4E7200200207262437265617465D0
:10351000204661696C64200A0000000072624372F8
:10352000656174652053756363657373200A0000D9
:10353000F0B506460024354D092787B0062E5FD228
:10354000DFE806F0030D0D3454596846FFF762F8C2
:103550000B202FE001462EA0FEF756FA43E003A809
:10356000FFF758F88DF8107055F8310F8DF81100ED
:10357000401C28608DF814600620FEF7A6FCADF80C
:103580000E000A2103A8FFF7F1FB8DF815000A21B0
:1035900003A800F0B5FA040003D501461CA0FEF70D
:1035A00033FA0A2103A8FFF7F3FB2CE06846FFF784
:1035B00031F813208DF8040055F8310F8DF805000F
:1035C000401C28600520FEF780FCADF802000921B0
:1035D0006846FFF7CBFB8DF808000921684600F02C
:1035E0008FFA0400B6D409216846DCE76846FFF785
:1035F00011F81520DEE76846FFF70CF82920D9E717
:103600000AA0FEF701FA07B02046F0BD2C01002009
:103610004552523A20756172742077726974652040
:103620006572726F72202564200A00004552523A7A
:10363000204366674D6F6465206572726F72210A60
:103640000000000010B504A0FEF7DEF9BDE8104050
:103650000020FFF76DBF00004B4559312050524507
:103660005353204C4F4E47202C57696669205265B2
:103670007365740A0000000010B504A0FEF7C4F9D9
:10368000BDE810400320FFF753BF00004B45593100
:10369000205052455353202C50726F6475637469E7
:1036A0006F6E204D6F64650A0000000010B504A025
:1036B000FEF7AAF9BDE810400220FFF739BF00006D
:1036C0004B455932205052455353204C4F4E4720C2
:1036D0002C4169724C696E6B206D6F64650A000045
:1036E00010B504A0FEF790F9BDE810400120FFF7E7
:1036F0001FBF00004B455932205052455353202CD8
:10370000536F6674204150206D6F64650A0000009D
:103710002DE9F0410646002400F09EF9050032D064
:10372000A8044FF0010712D414E0D6F80110C4EB3E
:10373000C40000EB40000B5C07FA03F22A4204D0FD
:103740000D300844006800B18047641CE4B2307852
:10375000A042EAD8280416D5002411E0D6F80110BA
:10376000C4EBC40000EB40000B5C07FA03F22A42F2
:1037700004D011300844006800B18047641CE4B2F2
:103780003078A042EAD8BDE8F081000000B589B0E9
:1037900014491548CDE900010423144A002102A868
:1037A00000F030F8152202A91148FCF74CFD114930
:1037B0001148CDE900014FF40053104A002102A83E
:1037C00000F020F80A48152202A91530FCF73BFD4D
:1037D0000B490748C1F8010009B008465DF804EB41
:1037E00000F030B84536000879360008001C024069
:1037F00040000020AD360008E13600080008024015
:103800000000002030B587B0DDE90A45CDF8011091
:10381000CDF805200A4ACDF80930D178491CD1707D
:103820008DF80010CDF81150CDF80D401178491CDD
:10383000117015226946FCF706FD07B030BD000087
:1038400030000020002806D00349097801700C29B7
:1038500001D90C210170704730000020FCF764FE94
:10386000FDF7A6FDFDF7E4FCFDF732FDFDF762FD77
:10387000FDF77CFD002201211C20FCF7B5FE1C2079
:10388000FCF7A4FE002211462620FCF7ADFE262000
:10389000FCF79CFE00F024F900F028F900F09EF9F6
:1038A000FFF71AFEFFF772FF04A0FEF7ADF800F075
:1038B00083F90748FFF770FCF9E700004D435520F6
:1038C000496E69742053756363657373200A000041
:1038D00019000020012080F31388FCF7B7BE00B563
:1038E000010006D04A688868824205D14FF0000086
:1038F00000BD4FF0FF3000BD02D2A0EB020000BDC2
:10390000084600F013F84A688968511A401A00BD49
:1039100000B5010007D000F009F803460846FFF79C
:10392000DEFF181A00BD4FF0FF3000BD08B100687F
:1039300070474FF0FF30704720B1C168416081602F
:10394000002070474FF0FF3070472DE9F041040030
:1039500015460F464FF0FF3020D0002F1ED0606874
:10396000A1688842204609D2FFF7B9FFA84203D8D0
:103970002046FFF7B4FF0546616807E0FFF7D6FF72
:103980006168E2688A1A801AA84209D92A4638462C
:10399000FCF759FC6068284460602846BDE8F08167
:1039A0002046FFF7C3FF6168E2688A1A861A32462A
:1039B0003846FCF748FCE0686060AA1BB91920464D
:1039C000FFF7C3FF3044E9E72DE9F04115460F4604
:1039D000040008D03FB1FFF79BFFA84206D86FF064
:1039E0000100BDE8F0814FF0FF30FAE76168A068A0
:1039F000814229D82046FFF799FF0146A068E26876
:103A0000821A8E1AB54212D82A463946FCF71BFC98
:103A1000A0682844A0602046FFF788FF0146E068C0
:103A2000A2680144914200D1A0602846D9E73246FD
:103A30003946FCF708FCE068A060AA1BB9192046CB
:103A4000FFF7C2FF3044CCE72A463946FCF7FBFBC0
:103A5000A0682844E8E7000070B5204C0126002546
:103A60002179491CC9B221711E2902D325716670C2
:103A700002E0617801292ED16570FEF745FAA17840
:103A800031B1012908D002290ED0032923D11FE02A
:103A900008B32081A6701EE02189884202D102204D
:103AA000A07018E0A57016E02189884204D0A570A6
:103AB000E58041F4005070BDE188491C89B2E18085
:103AC000642908D3E5800321A17040F4004070BD53
:103AD00021898842E6D1002070BD0000300000201E
:103AE0000148FDF79DB800006C000020012202494A
:103AF0000248FDF7DDBA000018000020EC000020AD
:103B0000F8B5050021A00E4600684FF000040090B3
:103B100001D01F4F1AE04FF0FF30F8BD29190122E4
:103B20001B48FDF764FB97F839002028FBD1022CD5
:103B30000BD3285DFF2808D1012269461448FDF700
:103B400056FB97F839002028FBD1641CB442E5D31A
:103B500010483246416810A0FDF756FF00240DE0E2
:103B6000295D12A0FDF750FF022C06D3285DFF2827
:103B700003D155210DA0FDF747FF641CB442EFD3DC
:103B80000CA0FDF741FF3046F8BD000055000000D5
:103B9000EC000020180000204D435532576946695B
:103BA0005B2534643A2534645D3A20002530327850
:103BB000200000000A00000010B501210548FCF7B4
:103BC0009BFC0549012802D00120087010BD00208F
:103BD000FBE700000004024019000020014800211A
:103BE0004170704718000020000000000000000035
:103BF0000102030406070809000000000102030493
:103C0000203C00080000002040000000481A000886
:103C1000603C00084000002020220000581A0008E4
:103C20000000000000000000010000001000000083
:103C3000000000000024F40000000000000000006C
:103C40000000000000000000000000000000000074
:103C5000000000FF00000000000000000000000065
:04000005080001AD41
:00000001FF
